{"abi":[{"type":"constructor","inputs":[{"name":"_iprofitVerifier","type":"address","internalType":"address"}],"stateMutability":"nonpayable"},{"type":"function","name":"checkEnterGameRequiredOrNot","inputs":[{"name":"gameNumber","type":"uint256","internalType":"uint256"}],"outputs":[{"name":"","type":"bool","internalType":"bool"}],"stateMutability":"view"},{"type":"function","name":"claimXP","inputs":[{"name":"gameNumber","type":"uint256","internalType":"uint256"}],"outputs":[],"stateMutability":"nonpayable"},{"type":"function","name":"currentSeason","inputs":[],"outputs":[{"name":"","type":"uint256","internalType":"uint256"}],"stateMutability":"view"},{"type":"function","name":"enterGame","inputs":[{"name":"gameNumber","type":"uint256","internalType":"uint256"}],"outputs":[],"stateMutability":"payable"},{"type":"function","name":"enteredGame","inputs":[{"name":"","type":"address","internalType":"address"},{"name":"","type":"uint256","internalType":"uint256"},{"name":"","type":"uint256","internalType":"uint256"}],"outputs":[{"name":"","type":"bool","internalType":"bool"}],"stateMutability":"view"},{"type":"function","name":"entryFee","inputs":[],"outputs":[{"name":"","type":"uint256","internalType":"uint256"}],"stateMutability":"view"},{"type":"function","name":"gameDetails","inputs":[{"name":"","type":"address","internalType":"address"},{"name":"","type":"uint256","internalType":"uint256"},{"name":"","type":"uint256","internalType":"uint256"}],"outputs":[{"name":"score","type":"uint256","internalType":"uint256"},{"name":"proof","type":"bytes","internalType":"bytes"}],"stateMutability":"view"},{"type":"function","name":"geAllPlayers","inputs":[],"outputs":[{"name":"","type":"address[]","internalType":"address[]"}],"stateMutability":"view"},{"type":"function","name":"getGameDetails","inputs":[{"name":"player","type":"address","internalType":"address"},{"name":"gameNumber","type":"uint256","internalType":"uint256"}],"outputs":[{"name":"","type":"uint256","internalType":"uint256"}],"stateMutability":"view"},{"type":"function","name":"getXP","inputs":[{"name":"player","type":"address","internalType":"address"}],"outputs":[{"name":"","type":"uint256","internalType":"uint256"}],"stateMutability":"view"},{"type":"function","name":"iProfitVerifier","inputs":[],"outputs":[{"name":"","type":"address","internalType":"contract IProfitVerifier"}],"stateMutability":"view"},{"type":"function","name":"owner","inputs":[],"outputs":[{"name":"","type":"address","internalType":"address"}],"stateMutability":"view"},{"type":"function","name":"playerXP","inputs":[{"name":"","type":"address","internalType":"address"},{"name":"","type":"uint256","internalType":"uint256"}],"outputs":[{"name":"","type":"uint256","internalType":"uint256"}],"stateMutability":"view"},{"type":"function","name":"players","inputs":[{"name":"","type":"uint256","internalType":"uint256"}],"outputs":[{"name":"","type":"address","internalType":"address"}],"stateMutability":"view"},{"type":"function","name":"proofVerified","inputs":[{"name":"","type":"address","internalType":"address"},{"name":"","type":"uint256","internalType":"uint256"},{"name":"","type":"uint256","internalType":"uint256"},{"name":"","type":"uint256","internalType":"uint256"}],"outputs":[{"name":"","type":"bool","internalType":"bool"}],"stateMutability":"view"},{"type":"function","name":"resetSeason","inputs":[],"outputs":[],"stateMutability":"nonpayable"},{"type":"function","name":"saveGameDetails","inputs":[{"name":"gameNumber","type":"uint256","internalType":"uint256"},{"name":"stars","type":"uint256","internalType":"uint256"},{"name":"_proof","type":"bytes","internalType":"bytes"}],"outputs":[],"stateMutability":"nonpayable"},{"type":"function","name":"seasonStartTime","inputs":[],"outputs":[{"name":"","type":"uint256","internalType":"uint256"}],"stateMutability":"view"}],"bytecode":{"object":"0x608060405266038d7ea4c680005f553480156018575f80fd5b506040516119a63803806119a68339810160408190526035916070565b60038054336001600160a01b031991821617909155426001908155600255600480549091166001600160a01b0392909216919091179055609b565b5f60208284031215607f575f80fd5b81516001600160a01b03811681146094575f80fd5b9392505050565b6118fe806100a85f395ff3fe608060405260043610610105575f3560e01c80638104ae4d116100925780639b08f9de116100625780639b08f9de1461033f578063bcb396211461035e578063dff7039014610373578063edb648a114610392578063f71d96cb146103d6575f80fd5b80638104ae4d146102b357806383e49e4a146102c85780638da5cb5b146102e95780639a58b38e14610320575f80fd5b806343d6582b116100d857806343d6582b146101e857806359eb770c146101fb578063639487f4146102315780636cc3ca82146102725780636eef52201461029f575f80fd5b8063072ea61c14610109578063181a8ccd146101305780631e10d757146101885780632234b7d7146101c7575b5f80fd5b348015610114575f80fd5b5061011d5f5481565b6040519081526020015b60405180910390f35b34801561013b575f80fd5b5061017861014a3660046113f7565b600860209081525f948552604080862082529385528385208152918452828420909152825290205460ff1681565b6040519015158152602001610127565b348015610193575f80fd5b506101786101a236600461142d565b600560209081525f938452604080852082529284528284209052825290205460ff1681565b3480156101d2575f80fd5b506101e66101e136600461145d565b6103f5565b005b6101e66101f636600461145d565b6107ed565b348015610206575f80fd5b5061011d610215366004611474565b600760209081525f928352604080842090915290825290205481565b34801561023c575f80fd5b5061011d61024b36600461149c565b6001600160a01b03165f908152600760209081526040808320600254845290915290205490565b34801561027d575f80fd5b5061029161028c36600461142d565b610904565b6040516101279291906114ea565b3480156102aa575f80fd5b506101e66109b7565b3480156102be575f80fd5b5061011d60015481565b3480156102d3575f80fd5b506102dc610dbb565b604051610127919061150a565b3480156102f4575f80fd5b50600354610308906001600160a01b031681565b6040516001600160a01b039091168152602001610127565b34801561032b575f80fd5b506101e661033a366004611555565b610e1b565b34801561034a575f80fd5b50600454610308906001600160a01b031681565b348015610369575f80fd5b5061011d60025481565b34801561037e575f80fd5b5061011d61038d366004611474565b6111a0565b34801561039d575f80fd5b506101786103ac36600461145d565b335f90815260056020908152604080832060025484528252808320938352929052205460ff161590565b3480156103e1575f80fd5b506103086103f036600461145d565b6111d4565b6001546104059062278d006115e5565b421061042c5760405162461bcd60e51b8152600401610423906115f8565b60405180910390fd5b335f908152600660209081526040808320600254845282528083208484528252808320815180830190925280548252600181018054929391929184019161047290611622565b80601f016020809104026020016040519081016040528092919081815260200182805461049e90611622565b80156104e95780601f106104c0576101008083540402835291602001916104e9565b820191905f5260205f20905b8154815290600101906020018083116104cc57829003601f168201915b505050919092525050815191925050806105455760405162461bcd60e51b815260206004820152601e60248201527f4e6f2073636f726520617661696c61626c6520746f20636c61696d20585000006044820152606401610423565b335f90815260086020908152604080832060025484528252808320868452825280832084845290915290205460ff16156105cb5760405162461bcd60e51b815260206004820152602160248201527f585020616c726561647920636c61696d656420666f7220746869732073636f726044820152606560f81b6064820152608401610423565b6040805160028082526060820183525f92602083019080368337019050509050835f1b816001815181106106015761060161166e565b6020908102919091010152610617600183611682565b5f1b815f8151811061062b5761062b61166e565b6020908102919091018101919091526004805491850151604051633a94343960e21b81526001600160a01b039093169263ea50d0e49261066e92918691016116cf565b602060405180830381865afa158015610689573d5f803e3d5ffd5b505050506040513d601f19601f820116820180604052508101906106ad91906116fc565b6106ec5760405162461bcd60e51b815260206004820152601060248201526f141c9bdbd9881a5cc81a5b9d985b1a5960821b6044820152606401610423565b5f6106f883600a61171b565b335f90815260076020908152604080832060025484529091528120805492935083929091906107289084906115e5565b9091555050335f8181526008602090815260408083206002805485529083528184208a855283528184208885528352818420805460ff19166001179055938352600a825280832093548352929052205460ff166107e6576009805460018181019092557f6e1540171b6c0c960b71a7020d9f60077f6af931a8bbf590da0223dacf75c7af0180546001600160a01b031916339081179091555f908152600a6020908152604080832060025484529091529020805460ff191690911790555b5050505050565b6001546107fd9062278d006115e5565b421061081b5760405162461bcd60e51b8152600401610423906115f8565b5f5434146108615760405162461bcd60e51b8152602060048201526013602482015272496e636f727265637420656e7472792066656560681b6044820152606401610423565b335f9081526005602090815260408083206002548452825280832084845290915290205460ff16156108d55760405162461bcd60e51b815260206004820152601960248201527f416c726561647920656e746572656420746869732067616d65000000000000006044820152606401610423565b335f9081526005602090815260408083206002548452825280832093835292905220805460ff19166001179055565b600660209081525f93845260408085208252928452828420905282529020805460018201805491929161093690611622565b80601f016020809104026020016040519081016040528092919081815260200182805461096290611622565b80156109ad5780601f10610984576101008083540402835291602001916109ad565b820191905f5260205f20905b81548152906001019060200180831161099057829003601f168201915b5050505050905082565b6003546001600160a01b03163314610a1c5760405162461bcd60e51b815260206004820152602260248201527f4f6e6c79206f776e65722063616e20706572666f726d2074686973206163746960448201526137b760f11b6064820152608401610423565b600154610a2c9062278d006115e5565b421015610a745760405162461bcd60e51b8152602060048201526016602482015275536561736f6e206973207374696c6c2061637469766560501b6044820152606401610423565b600954600310610ac65760405162461bcd60e51b815260206004820181905260248201527f4e6f20706c617965727320746f206469737472696275746520726577617264736044820152606401610423565b4780610b145760405162461bcd60e51b815260206004820152601860248201527f4e6f207265776172647320746f206469737472696275746500000000000000006044820152606401610423565b5f6064610b2283601461171b565b610b2c9190611732565b90505f610b398284611682565b90505f60405180608001604052806064846028610b56919061171b565b610b609190611732565b81526020016064610b7285601e61171b565b610b7c9190611732565b81526020016064610b8e85601461171b565b610b989190611732565b81526020016064610baa85600a61171b565b610bb49190611732565b905290505f610bc16111fc565b90505f5b6004811015610cef575f828260048110610be157610be161166e565b60200201516001600160a01b031614158015610c1b5750818160048110610c0a57610c0a61166e565b60200201516001600160a01b03163b155b15610ce7575f828260048110610c3357610c3361166e565b60200201516001600160a01b0316848360048110610c5357610c5361166e565b60200201516040516108fc91905f818181858888f193505050503d805f8114610c97576040519150601f19603f3d011682016040523d82523d5f602084013e610c9c565b606091505b5050905080610ce55760405162461bcd60e51b815260206004820152601560248201527411985a5b1959081d1bc81cd95b99081c995dd85c99605a1b6044820152606401610423565b505b600101610bc5565b506003546040515f916001600160a01b03169086908381818185875af1925050503d805f8114610d3a576040519150601f19603f3d011682016040523d82523d5f602084013e610d3f565b606091505b5050905080610d905760405162461bcd60e51b815260206004820152601b60248201527f4661696c656420746f2073656e64206f776e65722072657761726400000000006044820152606401610423565b610d9b60095f611388565b60028054905f610daa83611751565b909155505042600155505050505050565b60606009805480602002602001604051908101604052809291908181526020018280548015610e1157602002820191905f5260205f20905b81546001600160a01b03168152600190910190602001808311610df3575b5050505050905090565b600154610e2b9062278d006115e5565b4210610e495760405162461bcd60e51b8152600401610423906115f8565b335f9081526005602090815260408083206002548452825280832087845290915290205460ff16610ebc5760405162461bcd60e51b815260206004820181905260248201527f506c6179657220686173206e6f7420656e746572656420746869732067616d656044820152606401610423565b335f908152600660209081526040808320600254845282528083208784529091529020548311610f2e5760405162461bcd60e51b815260206004820152601860248201527f4e65772073636f7265206d7573742062652068696768657200000000000000006044820152606401610423565b6040805160028082526060820183525f92602083019080368337019050509050845f1b81600181518110610f6457610f6461166e565b6020908102919091010152610f7a600185611682565b5f1b815f81518110610f8e57610f8e61166e565b602090810291909101015260048054604051633a94343960e21b81526001600160a01b039091169163ea50d0e491610fcc9187918791879101611769565b602060405180830381865afa158015610fe7573d5f803e3d5ffd5b505050506040513d601f19601f8201168201806040525081019061100b91906116fc565b61104b5760405162461bcd60e51b8152602060048201526011602482015270141c9bdbd9881a5cc81c995a9958dd1959607a1b6044820152606401610423565b335f8181526006602090815260408083206002548085529083528184208a8552835281842054948452600883528184209084528252808320898452825280832084845290915290205460ff1615611112575f6110a882600a61171b565b335f90815260076020908152604080832060025484529091528120805492935083929091906110d8908490611682565b9091555050335f908152600860209081526040808320600254845282528083208a845282528083208584529091529020805460ff19169055505b604051806040016040528086815260200185858080601f0160208091040260200160405190810160405280939291908181526020018383808284375f920182905250939094525050338152600660209081526040808320600254845282528083208b845282529091208351815590830151909150600182019061119590826117f8565b505050505050505050565b6001600160a01b0382165f908152600660209081526040808320600254845282528083208484529091529020545b92915050565b600981815481106111e3575f80fd5b5f918252602090912001546001600160a01b0316905081565b6112046113a6565b61120c6113a6565b6112146113a6565b5f5b600954811015611380575f600982815481106112345761123461166e565b5f9182526020808320909101546001600160a01b0316808352600782526040808420600254855290925290822054909250905b6004811015611375578481600481106112825761128261166e565b602002015182111561136d5760035b8181111561132957866112a5600183611682565b600481106112b5576112b561166e565b60200201518782600481106112cc576112cc61166e565b6001600160a01b039092166020929092020152856112eb600183611682565b600481106112fb576112fb61166e565b60200201518682600481106113125761131261166e565b602002015280611321816118b3565b915050611291565b508286826004811061133d5761133d61166e565b6001600160a01b039092166020929092020152818582600481106113635761136361166e565b6020020152611375565b600101611267565b505050600101611216565b509092915050565b5080545f8255905f5260205f20908101906113a391906113c4565b50565b60405180608001604052806004906020820280368337509192915050565b5b808211156113d8575f81556001016113c5565b5090565b80356001600160a01b03811681146113f2575f80fd5b919050565b5f805f806080858703121561140a575f80fd5b611413856113dc565b966020860135965060408601359560600135945092505050565b5f805f6060848603121561143f575f80fd5b611448846113dc565b95602085013595506040909401359392505050565b5f6020828403121561146d575f80fd5b5035919050565b5f8060408385031215611485575f80fd5b61148e836113dc565b946020939093013593505050565b5f602082840312156114ac575f80fd5b6114b5826113dc565b9392505050565b5f81518084528060208401602086015e5f602082860101526020601f19601f83011685010191505092915050565b828152604060208201525f61150260408301846114bc565b949350505050565b602080825282518282018190525f918401906040840190835b8181101561154a5783516001600160a01b0316835260209384019390920191600101611523565b509095945050505050565b5f805f8060608587031215611568575f80fd5b8435935060208501359250604085013567ffffffffffffffff81111561158c575f80fd5b8501601f8101871361159c575f80fd5b803567ffffffffffffffff8111156115b2575f80fd5b8760208284010111156115c3575f80fd5b949793965060200194505050565b634e487b7160e01b5f52601160045260245ffd5b808201808211156111ce576111ce6115d1565b60208082526010908201526f14d9585cdbdb881a185cc8195b99195960821b604082015260600190565b600181811c9082168061163657607f821691505b60208210810361165457634e487b7160e01b5f52602260045260245ffd5b50919050565b634e487b7160e01b5f52604160045260245ffd5b634e487b7160e01b5f52603260045260245ffd5b818103818111156111ce576111ce6115d1565b5f8151808452602084019350602083015f5b828110156116c55781518652602095860195909101906001016116a7565b5093949350505050565b604081525f6116e160408301856114bc565b82810360208401526116f38185611695565b95945050505050565b5f6020828403121561170c575f80fd5b815180151581146114b5575f80fd5b80820281158282048414176111ce576111ce6115d1565b5f8261174c57634e487b7160e01b5f52601260045260245ffd5b500490565b5f60018201611762576117626115d1565b5060010190565b60408152826040820152828460608301375f606084830101525f601f19601f850116820160608382030160208401526117a56060820185611695565b9695505050505050565b601f8211156117f357805f5260205f20601f840160051c810160208510156117d45750805b601f840160051c820191505b818110156107e6575f81556001016117e0565b505050565b815167ffffffffffffffff8111156118125761181261165a565b611826816118208454611622565b846117af565b6020601f821160018114611858575f83156118415750848201515b5f19600385901b1c1916600184901b1784556107e6565b5f84815260208120601f198516915b828110156118875787850151825560209485019460019092019101611867565b50848210156118a457868401515f19600387901b60f8161c191681555b50505050600190811b01905550565b5f816118c1576118c16115d1565b505f19019056fea2646970667358221220f1985e934416aaf40fbdffcc15c8600df23871490006eea36af35199e0ff2dd364736f6c634300081a0033","linkReferences":{}},"methodIdentifiers":{"checkEnterGameRequiredOrNot(uint256)":"edb648a1","claimXP(uint256)":"2234b7d7","currentSeason()":"bcb39621","enterGame(uint256)":"43d6582b","enteredGame(address,uint256,uint256)":"1e10d757","entryFee()":"072ea61c","gameDetails(address,uint256,uint256)":"6cc3ca82","geAllPlayers()":"83e49e4a","getGameDetails(address,uint256)":"dff70390","getXP(address)":"639487f4","iProfitVerifier()":"9b08f9de","owner()":"8da5cb5b","playerXP(address,uint256)":"59eb770c","players(uint256)":"f71d96cb","proofVerified(address,uint256,uint256,uint256)":"181a8ccd","resetSeason()":"6eef5220","saveGameDetails(uint256,uint256,bytes)":"9a58b38e","seasonStartTime()":"8104ae4d"},"id":28}